:020000040800F2
:100000000000022069230008B9230008B923000872
:10001000B9230008B9230008B92300080000000034
:10002000000000000000000000000000B9230008EC
:10003000B923000800000000B9230008F5220008D9
:10004000B9230008B9230008B9230008B923000820
:10005000B9230008B923000801230008B9230008C8
:10006000B9230008B9230008B9230008B923000800
:10007000B9230008B9230008B9230008B9230008F0
:10008000B9230008B9230008B9230008B9230008E0
:10009000B9230008B9230008B9230008B9230008D0
:1000A000B9230008B9230008B9230008B9230008C0
:1000B000B92300080D230008B9230008B92300085C
:1000C000B9230008B9230008B9230008B9230008A0
:1000D000B9230008B9230008B9230008B923000890
:1000E000B9230008B9230008B9230008B923000880
:1000F000B9230008B9230008B9230008B923000870
:10010000B9230008B9230008B9230008B92300085F
:10011000B9230008B9230008B9230008B92300084F
:10012000B9230008B9230008B9230008B92300083F
:10013000B9230008B9230008B9230008B92300082F
:10014000B9230008B9230008B9230008B92300081F
:10015000B9230008B9230008B9230008B92300080F
:10016000B9230008B9230008B9230008B9230008FF
:10017000B9230008B9230008B923000800000000D3
:08018000B9230008B9230008AF
:1001880010B5054C237833B9044B13B10448AFF3C9
:1001980000800123237010BD100000200000000023
:1001A8000424000808B5034B1BB103490348AFF307
:1001B800008008BD0000000014000020042400088E
:1001C80053B94AB9002908BF00281CBF4FF0FF31B6
:1001D8004FF0FF3000F072B9ADF1080C6DE904CEB4
:1001E80000F006F8DDF804E0DDE9022304B070470A
:1001F8002DE9F047089E04468846002B4BD18A42D9
:10020800154667D9B2FA82F24AB1C2F1200701FA5B
:1002180002F320FA07F7954047EA030894404FEAAB
:10022800154E230CB8FBFEF71FFA85FC0EFB17884A
:1002380043EA084307FB0CF1994209D9EB1807F187
:10024800FF3080F01B81994240F21881023F2B4415
:100258005B1AA4B2B3FBFEF00EFB103344EA03446E
:1002680000FB0CFCA44509D92C1900F1FF3380F0E0
:100278000781A44540F2048102382C4440EA074033
:10028800A4EB0C0400271EB1D4400023C6E90043A8
:100298003946BDE8F0878B4209D9002E00F0EB8083
:1002A8000027C6E9000138463946BDE8F087B3FAA9
:1002B80083F7002F47D18B4202D3824200F2FA80A3
:1002C800841A61EB030301209846002EE0D0C6E9AA
:1002D8000048DDE702B9FFDEB2FA82F2002A40F0F8
:1002E8008F80491B4FEA154E1FFA85F80127B1FB8D
:1002F800FEFC230C0EFB1C1143EA014308FB0CF126
:10030800994207D9EB180CF1FF3002D2994200F25A
:10031800CD808446591AA3B2B1FBFEF00EFB10142F
:1003280043EA044408FB00F8A04507D92C1900F15A
:10033800FF3302D2A04500F2B6801846A4EB0804A9
:1003480040EA0C409FE7C7F1200CBB4022FA0CFEA4
:100358004EEA030E01FA07F420FA0CF521FA0CF321
:100368004FEA1E482543B3FBF8F92C0C08FB193358
:100378001FFA8EFA44EA034309FB0AF49C4202FA84
:1003880007F200FA07F10BD91EEB030309F1FF305E
:1003980080F087809C4240F28480A9F1020973446E
:1003A8001B1BADB2B3FBF8F008FB103345EA03445E
:1003B80000FB0AFAA24508D91EEB040400F1FF333A
:1003C8006BD2A24569D90238744440EA0940A0FBBF
:1003D8000289A4EB0A044C45C2464B4654D351D07B
:1003E800002E69D0B1EB0A0564EB030404FA0CFC97
:1003F800FD40FC404CEA0505C6E90054002747E7E4
:10040800C2F1200320FA03F7954001FA02F021FA1D
:1004180003F34FEA154E3843010CB3FBFEF71FFAFE
:1004280085F80EFB173341EA034107FB08F38B42BB
:1004380004FA02F407D9691807F1FF3C2FD28B425E
:100448002DD9023F2944CB1A81B2B3FBFEF00EFB33
:10045800103341EA034100FB08F38B4207D96918BE
:1004680000F1FF3C17D28B4215D902382944C91A2A
:1004780040EA07473BE73746304609E70746E7E6DD
:100488001846FBE64145ABD2B8EB020A69EB0E020F
:1004980001381346A4E76046E9E7184695E767463A
:1004A800D1E781467CE702382C4447E7ACF1020CDF
:1004B8002B442FE7384608E73746E9E6704700BF80
:1004C80010B504460E4B18784FF47A73B3FBF0F36B
:1004D8000C4A1068B0FBF3F000F0A8F868B90F2CCC
:1004E80001D901200AE0002221464FF0FF3000F038
:1004F8005DF8034B5C60002000E0012010BD00BFE8
:10050800000000200C00002008B50B4B1A6842F4CC
:1005180000721A601A6842F480621A601A6842F41B
:1005280080721A60032000F02FF80020FFF7C8FF40
:1005380001F020FE002008BD003C0240034A11687B
:10054800034B1B780B441360704700BFA0000020CA
:1005580000000020014B1868704700BFA000002071
:1005680038B50446FFF7F6FF0546B4F1FF3F02D061
:10057800044B1B781C44FFF7EDFF401BA042FAD345
:1005880038BD00BF00000020074AD36823F4E063A9
:100598001B041B0C000200F4E060184340F0BF602D
:1005A80040F40030D060704700ED00E030B4174BE5
:1005B800DB68C3F30223C3F10704042C28BF042417
:1005C8001D1D062D18D9033B4FF0FF3505FA04F41D
:1005D80021EA0401994005FA03F322EA03031943C7
:1005E80000280BDB0901C9B200F1604000F5614049
:1005F80080F8001330BC70470023E5E700F00F00D7
:100608000901C9B2024B1954F4E700BF00ED00E03C
:1006180014ED00E000F01F02400901239340024A54
:1006280042F82030704700BF00E100E00138B0F127
:10063800807F0AD2064B5860064AF02182F82310C0
:100648000020986007221A6070470120704700BF99
:1006580010E000E000ED00E0042805D0054A13682A
:1006680023F0040313607047024A136843F004033D
:100678001360704710E000E0704708B5FFF7FCFF13
:1006880008BD000000230F2B00F2D780F0B482B021
:1006980039E0072200E00022B2403A430234674EB4
:1006A80046F82420664A1468EA4302EA04064F68BA
:1006B80017F4803F01D045EA0406614C266064685F
:1006C80002EA04064F6817F4003F01D045EA040621
:1006D8005B4C6660A46802EA04064F6817F4801F42
:1006E80001D045EA0406564CA660E46822404E68EC
:1006F80016F4001F01D045EA0402514CE2600133B0
:100708000F2B00F2978001229A400C6804EA020538
:10071800AA42F4D14C68022C01D0122C10D1DE0868
:10072800083650F826C003F00704A7000F24BC4081
:100738002CEA040C0C69BC4044EA0C0440F826403E
:1007480004685F000326BE40F64306EA040C4C68C2
:1007580004F00304BC4044EA0C0404604C6804F14F
:10076800FF3CBCF1010F03D9112C01D0122C10D180
:10077800846806EA040CCC68BC4044EA0C04846033
:10078800446824EA02024C68C4F300149C401443F1
:100798004460C26816408A68BA403243C2604A68F8
:1007A80012F0805FABD000220192264A546C44F4C8
:1007B80080445464526C02F480420192019A9C086D
:1007C800A61C1E4A52F8267003F0030296000F2258
:1007D800B24027EA02071C4A90423FF45CAF02F598
:1007E800806290421AD002F58062904218D002F5D9
:1007F8008062904216D002F58062904214D002F5D1
:100808008062904212D002F58062904210D002F5C8
:10081800806290423FF43DAF08223DE701223BE76A
:10082800022239E7032237E7042235E7052233E7B6
:10083800062231E702B0F0BC70477047003801402B
:10084800003C0140003802400000024003691942A0
:1008580001D1002070470120704712B90904816155
:100868007047816170474369594041617047000092
:1008780008B5054B5B69034200D108BD024B5861BE
:1008880001F0C0FAF9E700BF003C0140002800F081
:10089800BB8170B582B00446036813F0010F3BD0EA
:1008A800A74B9B6803F00C03042B2CD0A44B9B682C
:1008B80003F00C03082B21D06368B3F5803F4FD0B9
:1008C800B3F5A02F52D09E4B1A6822F480321A60DA
:1008D8001A6822F480221A606368002B50D0FFF750
:1008E80039FE0546964B1B6813F4003F14D1FFF7F9
:1008F80031FE401B6428F5D903208AE1904B5B68E0
:1009080013F4800FD8D08E4B1B6813F4003F03D02C
:100918006368002B00F07A81236813F0020F55D02A
:10092800874B9B6813F00C0F3ED0854B9B6803F0F8
:100938000C03082B33D0E368002B68D0814B0122CD
:100948001A60FFF707FE05467D4B1B6813F0020F80
:1009580054D1FFF7FFFD401B0228F5D9032058E1C9
:10096800774A136843F480331360B5E7744B1A6809
:1009780042F480221A601A6842F480321A60ABE7A7
:10098800FFF7E8FD05466E4B1B6813F4003FC3D024
:10099800FFF7E0FD401B6428F5D9032039E1684BD7
:1009A8005B6813F4800FC6D1654B1B6813F0020F08
:1009B80004D0E368012B01D001202AE1604A1368C2
:1009C80023F0F803216943EAC1031360236813F095
:1009D800080F40D0636963B35B4B01221A60FFF7CD
:1009E800B9FD0546564B5B6F13F0020F33D1FFF785
:1009F800B1FD401B0228F5D903200AE1504A1368CB
:100A080023F0F803216943EAC1031360DEE74D4B85
:100A180000221A60FFF79EFD0546494B1B6813F03C
:100A2800020FD3D0FFF796FD401B0228F5D903200B
:100A3800EFE0454B00221A60FFF78CFD0546404B5E
:100A48005B6F13F0020F06D0FFF784FD401B0228EE
:100A5800F5D90320DDE0236813F0040F79D0384B73
:100A68001B6C13F0805F33D100230193344B1A6C55
:100A780042F080521A641B6C03F080530193019B6F
:100A88000125324B1B6813F4807F23D0A368012B08
:100A980034D0052B38D02A4B1A6F22F001021A677E
:100AA8001A6F22F004021A67A368002B36D0FFF7EA
:100AB80051FD0646224B1B6F13F0020F48D1FFF77A
:100AC80049FD801B41F288339842F3D90320A0E006
:100AD8000025D6E71D4A136843F480731360FFF7B7
:100AE80039FD0646194B1B6813F4807FCED1FFF7FA
:100AF80031FD801B0228F5D903208AE0104A136FC4
:100B080043F001031367CFE70D4B1A6F42F004025D
:100B18001A671A6F42F001021A67C5E7FFF71AFD54
:100B28000646074B1B6F13F0020F11D0FFF712FD9B
:100B3800801B41F288339842F3D9032069E000BF53
:100B48000038024000004742800E474200700040D3
:100B5800E5B9A369002B5BD0304A926802F00C0219
:100B6800082A58D0022B17D02D4B00221A60FFF705
:100B7800F1FC0446294B1B6813F0007F42D0FFF7B5
:100B8800E9FC001B0228F5D9032042E0234A136C34
:100B980023F080531364DCE7214B00221A60FFF72F
:100BA800D9FC05461D4B1B6813F0007F06D0FFF7E4
:100BB800D1FC401B0228F5D903202AE0E369226A08
:100BC8001343626A43EA8213A26A5208013A43EA6B
:100BD8000243E26A43EA0263104A5360104B01225F
:100BE8001A60FFF7B7FC04460C4B1B6813F0007F34
:100BF80006D1FFF7AFFC001B0228F5D9032008E057
:100C0800002006E0002004E001207047012000E0F9
:100C1800002002B070BD0120FBE700BF0038024091
:100C280060004742324B9B6803F00C03042B5CD0F6
:100C3800082B01D02F4870472DE9F04B2C4B5A68F0
:100C480002F03F025B6813F4800F2BD0284B5B68DF
:100C5800C3F388131E4600275C010025E41A65EBE0
:100C68000705A90141EA9461A001001B61EB050198
:100C7800CB0043EA5073C400A01943EB07014B02B1
:100C880043EAD0534402204619460023FFF798FA56
:100C9800174B5B68C3F3014301335B00B0FBF3F010
:100CA800BDE8F08B124B5B68C3F388131E46002720
:100CB8005C010025E41A65EB0705A90141EA946186
:100CC800A001001B61EB0501CB0043EA5073C4008F
:100CD800A01943EB07018B0243EA90538402204694
:100CE80019460023FFF76CFAD2E70348704700BFA4
:100CF800003802400024F40000127A00002800F0B6
:100D08009D8070B504464F4B1B6803F00F038B4260
:100D180009D2CBB24B4A1370136803F00F038B420E
:100D280001D0012070BD236813F0020F17D013F013
:100D3800040F04D0444A936843F4E0539360236853
:100D480013F0080F04D0404A936843F4604393605B
:100D58003D4A936823F0F003A068034393600D466F
:100D6800236813F0010F32D06368012B21D09A1E3B
:100D7800012A25D9344A126812F0020F60D032498C
:100D88008A6822F0030213438B60FFF7E3FB0646F1
:100D98002D4B9B6803F00C036268B3EB820F16D0EF
:100DA800FFF7D8FB801B41F288339842F0D9032023
:100DB800B8E7254A126812F4003FE0D10120B1E7F4
:100DC800214A126812F0007FD9D10120AAE71D4BF1
:100DD8001B6803F00F03AB4209D9EAB2194B1A702A
:100DE8001B6803F00F03AB4201D001209AE7236888
:100DF80013F0040F06D0144A936823F4E053E16813
:100E08000B439360236813F0080F07D00E4A9368CA
:100E180023F46043216943EAC1039360FFF702FFAB
:100E2800094B9B68C3F30313084AD35CD840084BAB
:100E380018600020FFF744FB002073E7012070478B
:100E480001206FE7003C0240003802401C240008E3
:100E58000C000020014B1868704700BF0C000020F0
:100E680008B5FFF7F7FF044B9B68C3F38223034AD7
:100E7800D35CD84008BD00BF003802402C240008CD
:100E880008B5FFF7E7FF044B9B68C3F34233034AF7
:100E9800D35CD84008BD00BF003802402C240008AD
:100EA80070B4036A23F001030362036A4268846929
:100EB80024F073040D6845EA040623F002048B68E5
:100EC80023430C4DA84202D00B4CA0420BD123F077
:100ED8000803CD682B4323F0040322F440724D69C4
:100EE80015438A692A43426086614A6842630362FD
:100EF80070BC7047000001400004014030B4036A30
:100F080023F480730362036A4268C46924F073049B
:100F18000D682C4323F400738D6843EA05230E4DB6
:100F2800A84203D005F58065A8420ED123F40063DA
:100F3800CD6843EA052323F4806322F440524D69C7
:100F480042EA05128D6942EA05124260C4614A68A4
:100F5800C263036230BC70470000014030B4036ACA
:100F680023F480530362036A4468C26922F4E642A8
:100F78000D6842EA052223F400538D6843EA0533DD
:100F8800094DA84203D005F58065A84204D124F490
:100F980080444D6944EA85144460C2614A68026429
:100FA800036230BC704700BF0000014010B4036A00
:100FB800046A24F001040462846924F0F00444EA19
:100FC800021223F00A030B43826103625DF8044BAB
:100FD800704710B4036A23F0100303628469036A3C
:100FE80024F4704444EA023223F0A00343EA0113D4
:100FF800826103625DF8044B7047836823F07003D5
:1010080041F0070119438160704710B4846824F4E3
:101018007F4442EA03230B43234383605DF8044B78
:101028007047022380F839300268136843F00103DF
:101038001360012380F8393000207047704790F81A
:101048003830012B7DD010B50446012380F83830A4
:10105800022380F839300268936823F47F4323F031
:10106800770393600B68402B57D010D9702B3ED074
:101078001FD8502B47D0602B32D1CA684968006806
:10108800FFF7A7FF60212068FFF7B7FF28E0102BC4
:101098004DD008D9202B4FD0302B21D130210068DA
:1010A800FFF7ABFF1CE0DBB900210068FFF7A5FFE5
:1010B80016E0B3F5805F0ED0B3F5005F10D1CB68B2
:1010C8004A6889680068FFF7A0FF2268936843F4BC
:1010D8008043936004E00268936823F007039360F9
:1010E800012384F83930002084F8380010BDCB681B
:1010F8004A6889680068FFF788FF2268936843F0A8
:1011080077039360ECE7CA6849680068FFF74EFF09
:1011180050212068FFF771FFE2E7CA684968006854
:10112800FFF744FF40212068FFF767FFD8E7102149
:101138000068FFF762FFD3E720210068FFF75DFF33
:10114800CEE70220704770477047704710B50446D5
:1011580003681A6912F0020F11D0DA6812F0020F50
:101168000DD06FF002021A610123037603689B69B0
:1011780013F0030F70D000F059FE00232376236884
:101188001A6912F0040F12D0DA6812F0040F0ED0A8
:101198006FF004021A610223237623689B6913F413
:1011A800407F5FD0204600F041FE0023237623686D
:1011B8001A6912F0080F12D0DA6812F0080F0ED070
:1011C8006FF008021A61042323762368DB6913F0A1
:1011D800030F4ED0204600F029FE00232376236813
:1011E8001A6912F0100F12D0DA6812F0100F0ED030
:1011F8006FF010021A61082323762368DB6913F461
:10120800407F3DD0204600F011FE0023237623685E
:101218001A6912F0010F03D0DA6812F0010F36D103
:1012280023681A6912F0800F03D0DA6812F0800F71
:1012380034D123681A6912F0400F03D0DA6812F02B
:10124800400F32D123681A6912F0200F03D0DA68F0
:1012580012F0200F30D110BDFFF776FF204600F0C6
:10126800E7FD8AE72046FFF76FFF204600F0E0FD24
:101278009BE72046FFF768FF204600F0D9FDACE762
:101288002046FFF761FF204600F0D2FDBDE76FF072
:1012980001021A612046FFF756FFC1E76FF080028E
:1012A8001A61204600F0BAF9C3E76FF040021A61EC
:1012B8002046FFF74AFFC5E76FF020021A61204673
:1012C80000F0ABF9C7E7000003682E4A904212D03D
:1012D800B0F1804F0FD0A2F57C4290420BD002F5BE
:1012E8008062904207D002F58062904203D002F5F6
:1012F8007842904203D123F070034A681343214A8D
:1013080090422AD0B0F1804F27D0A2F57C4290427B
:1013180023D002F5806290421FD002F5806290428D
:101328001BD002F57842904217D002F570529042D5
:1013380013D002F5806290420FD002F5806290428D
:101348000BD0A2F59832904207D002F58062904205
:1013580003D002F58062904203D123F44073CA6837
:10136800134303608B68C3620B688362054B984222
:1013780003D003F58063984201D10B69036301230D
:101388004361704700000140A8B110B5044690F8C9
:1013980039305BB1022384F83930211D2068FFF70A
:1013A80093FF012384F83930002010BD80F83830CD
:1013B80000F02AFFEEE701207047A8B110B50446F7
:1013C80090F839305BB1022384F83930211D206848
:1013D800FFF77AFF012384F83930002010BD80F828
:1013E8003830FFF72BFEEEE70120704730B4036A70
:1013F80023F010030362036A4468826922F4E64218
:101408000D6842EA052223F020038D6843EA05139C
:101418000E4DA84203D005F58065A8420ED123F0F1
:101428008003CD6843EA051323F0400324F44064A5
:101438004D6944EA85048D6944EA85044460826103
:101448004A688263036230BC704700BF00000140F5
:1014580038B590F83830012B66D00D460446012384
:1014680080F83830022380F839300C2A1AD8DFE89F
:1014780002F00719191920191919341919194700EF
:101488000068FFF70DFD2268936943F00803936134
:101498002268936923F00403936122689369296998
:1014A8000B439361012384F83930002084F8380015
:1014B80038BD0068FFF79AFF2268936943F4006318
:1014C80093612268936923F4806393612268936926
:1014D800296943EA01239361E4E70068FFF70EFDF9
:1014E8002268D36943F00803D3612268D36923F0E3
:1014F8000403D3612268D36929690B43D361D1E717
:101508000068FFF72BFD2268D36943F40063D361B9
:101518002268D36923F48063D3612268D369296977
:1015280043EA0123D361BDE70220C1E710B40123D8
:1015380003FA01F4036A23EA04030362036A8A4094
:10154800134303625DF8044B7047000010B504466E
:101558000C290DD8DFE801F0070C0C0C230C0C0C3F
:10156800290C0C0C2F000268D36843F00203D360E7
:1015780001222068FFF7DAFF2368124A934203D05A
:1015880002F58062934203D15A6C42F400425A64D5
:101598002268136843F001031360002010BD02683D
:1015A800D36843F00403D360E2E70268D36843F0EA
:1015B8000803D360DCE70268D36843F01003D36004
:1015C800D6E700BF0000014090F83830012B22D048
:1015D80030B4012280F83820022380F839300468BA
:1015E800636823F070036360046863680D682B43C5
:1015F80063600468A36823F08003A3600468A36899
:1016080049680B43A36080F83920002380F83830FC
:10161800184630BC7047022070477047704700007A
:101628002DE9F843044601680A6922F44052C36868
:1016380013430B610168CA6822F4164222F00C02B7
:1016480083680069034360690343E0690343134304
:10165800CB6021684A6922F44072A36913434B6145
:10166800E369B3F5004F60D02368B84A934200F0AD
:10167800148102F58062934200F00F81FFF7F0FBBE
:1016880000EB800000EB80006568AD00B0FBF5F56D
:10169800AF4FA7FB05356D092E01FFF7E1FB00EB06
:1016A800800000EB80006568AD00B0FBF5F9FFF73E
:1016B800D7FB00EB800000EB80006568AD00B0FB55
:1016C800F5F5A7FB05356D094FF0640808FB15957E
:1016D8002D013235A7FB05356D0905F0F0053544B8
:1016E800FFF7BEFB00EB800000EB80006668B600E9
:1016F800B0FBF6F6FFF7B4FB00EB800000EB8000D0
:1017080063689B00B0FBF3F0A7FB0030400908FBBF
:1017180010684FEA081808F13208A7FB0837C7F322
:10172800431723682F449F600DE12368874A93423B
:101738005BD002F58062934257D0FFF791FB00EB34
:10174800800000EB800065686D00B0FBF5F5804F08
:10175800A7FB05356D092E01FFF782FB00EB800022
:1017680000EB800065686D00B0FBF5F9FFF778FBCA
:1017780000EB800000EB800065686D00B0FBF5F5BC
:10178800A7FB05356D094FF0640808FB1595ED00BA
:101798003235A7FB05356D096D0005F4F87535443C
:1017A800FFF75EFB00EB800000EB800066687600C8
:1017B800B0FBF6F6FFF754FB00EB800000EB80006F
:1017C80063685B00B0FBF3F3A7FB03235B0908FB2B
:1017D80013684FEAC80808F13208A7FB0837C7F3AF
:1017E800421723682F449F60ADE0FFF749FB00EBE9
:1017F800800000EB800065686D00B0FBF5F5544F84
:10180800A7FB05356D092E01FFF73AFB00EB8000B9
:1018180000EB800065686D00B0FBF5F9FFF730FB61
:1018280000EB800000EB800065686D00B0FBF5F50B
:10183800A7FB05356D094FF0640808FB1595ED0009
:101848003235A7FB05356D096D0005F4F87535448B
:10185800FFF716FB00EB800000EB8000666876005F
:10186800B0FBF6F6FFF70CFB00EB800000EB800006
:1018780063685B00B0FBF3F3A7FB03235B0908FB7A
:1018880013684FEAC80808F13208A7FB0837C7F3FE
:10189800421723682F449F6055E0FFF7F1FA00EBE9
:1018A800800000EB80006568AD00B0FBF5F5284FBF
:1018B800A7FB05356D092E01FFF7E2FA00EB800062
:1018C80000EB80006568AD00B0FBF5F9FFF7D8FACA
:1018D80000EB800000EB80006568AD00B0FBF5F51B
:1018E800A7FB05356D094FF0640808FB15952D0118
:1018F8003235A7FB05356D0905F0F0053544FFF7CE
:10190800BFFA00EB800000EB80006668B600B0FB11
:10191800F6F6FFF7B5FA00EB800000EB800063688D
:101928009B00B0FBF3F0A7FB0030400908FB1068F0
:101938004FEA081808F13208A7FB0837C7F343171E
:1019480023682F449F60BDE8F88300BF0010014062
:101958001F85EB512DE9F04105460F46164698467E
:10196800069C2B681B6837EA03030CBF012300237E
:10197800B3421DD1B4F1FF3FF3D02CB1FEF7EAFD1D
:10198800A0EB0800A042ECD92A68D36823F4D073EE
:10199800D3602A68536923F001035361202385F833
:1019A800393085F83A30002385F83830032000E0D4
:1019B8000020BDE8F08158B310B5044690F83930DE
:1019C8000BB3242384F839302268D36823F40053F6
:1019D800D3602046FFF724FE2268136923F490435E
:1019E80013612268536923F02A0353612268D3687C
:1019F80043F40053D3600020E063202384F8393097
:101A080084F83A3010BD80F8383000F037FCD8E759
:101A1800012070472DE9F04182B01E4690F8393018
:101A2800DBB2202B55D104460D469046002955D0EF
:101A3800002A55D090F83830012B53D0012380F874
:101A480038300023C363212380F83930FEF782FD44
:101A58000746A4F82480A4F8268010E000963B46A8
:101A6800002280212046FFF775FF00283CD12B88F3
:101A78002268C3F3080353602369C3B90235E38CB2
:101A88009BB2B3B1E38C013B9BB2E384A368B3F58B
:101A9800805FE3D000963B46002280212046FFF776
:101AA80059FF18BB2A7823685A600135E7E70135E2
:101AB800E5E700963B46002240212046FFF74AFF13
:101AC8000346A8B9202284F83920002284F8382057
:101AD80000E00223184602B0BDE8F0810123F9E7CF
:101AE8000123F7E70223F5E70323F3E70323F1E7ED
:101AF8000323EFE72DE9F04182B01E4690F83A3013
:101B0800DBB2202B5AD104460D469046002959D005
:101B1800002A59D090F83830012B57D0012380F88B
:101B280038300023C363222380F83A30FEF712FDD1
:101B38000746A4F82C80A4F82E801DE000963B46AA
:101B4800002220212046FFF705FF002840D1236905
:101B580033B923685B68C3F3080325F8023B0BE03D
:101B680023685B68DBB225F8013B05E023685B6806
:101B780003F07F032B700135E38D9BB2BBB1E38D7E
:101B8800013B9BB2E385A368B3F5805FD6D000968E
:101B98003B46002220212046FFF7DCFED0B923690E
:101BA800002BE3D123685B682B700135E4E7202321
:101BB80084F83A30002084F8380000E0022002B0AF
:101BC800BDE8F0810120FAE70120F8E70220F6E7F6
:101BD8000320F4E70320F2E72DE9F04F8DB000244D
:101BE8000194804B1A6B42F010021A631A6B02F0D0
:101BF80010020192019A02941A6B42F004021A63CD
:101C08001A6B02F004020292029A03941A6B42F0D1
:101C180080021A631A6B02F080020392039A0494FA
:101C28001A6B42F001021A631A6B02F00102049265
:101C3800049A05941A6B42F002021A631A6B02F0B6
:101C480002020592059A06941A6B42F008021A637A
:101C58001B6B03F008030693069B22460821624883
:101C6800FEF7FBFDDFF89881012211464046FEF79A
:101C7800F4FD22464FF210015C48FEF7EEFD082500
:101C880007950126089609940A9407A95648FEF76D
:101C9800F9FC0796089609940A9407A94046FEF7A6
:101CA800F1FC07950225089509940A944FF0050A56
:101CB800CDF82CA007A94046FEF7E4FC07964C4B4C
:101CC800089309944B4F07A93846FEF7DBFC10230D
:101CD8000793089509940A944FF00609CDF82C90BB
:101CE80007A93846FEF7CEFCE02307930895099428
:101CF8000A94CDF82CA007A93846FEF7C3FC4FF08C
:101D0800040BCDF81CB00894099407A93A48FEF7CB
:101D1800B9FC4FF480630793089509940A94CDF8A9
:101D28002CA007A93448FEF7ADFC4FF21003079327
:101D3800089609940A9407A92C48FEF7A3FC4FF4C7
:101D4800A4530793089509940A94CDF82C9007A9F1
:101D58004046FEF797FC4FF4807307930894099464
:101D680007A94046FEF78EFC4FF4007307930894CA
:101D7800099407A93846FEF785FC4FF4E05307930A
:101D8800089509940A940A230B9307A93846FEF785
:101D980079FC202307930894099407A91348FEF7B0
:101DA80071FC4FF4107307931223089309960A9451
:101DB800CDF82CB007A91048FEF764FC07950F4B27
:101DC8000893099407A90848FEF75CFC22462146B7
:101DD8004846FEF7EBFB4846FEF71CFC0DB0BDE895
:101DE800F08F00BF0038024000100240000C024093
:101DF8000000111000000240000402400000121010
:101E08000008024008B5FEF7A5FB074B1B6803F561
:101E18007A73984200D208BDFEF79CFB024B18600B
:101E280001225A60F7E700BF2C000020704700002D
:101E380008B50268184B9A4200D008BD174B9B683A
:101E4800002BFAD1154B01229A60154B00221A601B
:101E580002E00133124A13604FF480711148FEF713
:101E6800F5FC40B90E4B1B680F4A9342F1DD02E0C6
:101E780001330B4A13604FF480710A48FEF7E6FC01
:101E8800012804D1064B1B68074A9342F0DD034B37
:101E980002229A60D1E700BF000400402C00002015
:101EA80020010020000802409F86010008B5064B6B
:101EB8001A78012A14BF002201224FF40041034876
:101EC800FEF7CBFC08BD00BF08000020000C024054
:101ED800FEE7000000B58FB02748284B036041F2A9
:101EE800873343600023836040F2F312C2600361CA
:101EF800FFF74AFA30BB0EA94FF4805341F8103D62
:101F08001D48FFF79CF810BB1B48FFF756FA18BB93
:101F180000230893099308A91748FFF755FB00BB4E
:101F2800602301933223029300220392059201A9B0
:101F38001148FFF78DFAC8B90F4800F085F90FB0BE
:101F48005DF804FB40F21D110D48FFF7C1FF40F298
:101F580023110B48FFF7BCFF4FF494710848FFF7B3
:101F6800B7FF40F22F110648FFF7B2FF4FF49C71FC
:101F78000348FFF7ADFF00BFE40000200004004065
:101F88003424000808B50B480B4B03604FF4E133C9
:101F9800436000238360C36003610C224261836154
:101FA800C361FFF708FD00B908BD40F24D110348B1
:101FB800FFF78EFFA40000200048004034240008EA
:101FC80000B595B0002301932A4A116C41F0805165
:101FD8001164126C02F080520192019A0293264A0F
:101FE800116841F480411160126802F48042029243
:101FF800029A0222089201210B9110210C910E9253
:102008000F93082310933223119304231293072369
:10201800139308A8FEF73AFC18BB0F230393022377
:102028000493002105914FF4C05306934FF4A05335
:10203800079303A8FEF762FEB8B9FEF70BFF0F4B34
:10204800A3FB00308009FEF7F1FA0420FEF704FB39
:10205800002211464FF0FF30FEF7A8FA15B05DF8E0
:1020680004FBF1210648FFF733FFFF210448FFF77F
:102078002FFF00BF0038024000700040D34D6210AF
:102088003424000800B583B0FEF73EFAFFF798FF46
:10209800FFF7A2FDFFF71EFFFFF774FF2F4C204646
:1020A800FEF7BFFF00212046FFF750FA1FE02C4B38
:1020B80000225A60642301222A492B48FFF7AAFC10
:1020C80019E000224FF480412848FEF7C6FB244B54
:1020D80000229A6002A9002301F8013D642301222D
:1020E8002148FFF707FD50B30120FEF739FA1C4BD2
:1020F8005B68002BDBD11A4B9B68022BEAD11C4B87
:102108001A6841F287339A42DBDCFEF723FA144B54
:10211800DB6801339842DAD9FEF71CFA1049C86027
:10212800002301F8103F642301220F48FFF772FCD7
:1021380001224FF480410D48FEF78FFBC7E74FF4AB
:1021480000510A48FEF78FFB9DF807305A1E012AF6
:10215800CAD8044A1370FFF7A9FEC5E7E4000020B7
:102168002C00002008000020A4000020000C0240E1
:102178002001002010B582B000240094214B5A6C35
:1021880042F480425A645A6C02F480420092009AE7
:1021980001941A6C42F080521A641B6C03F080534D
:1021A8000193019B0720FEF7EFF9224621466FF0C5
:1021B8000B00FEF7FBF9224621466FF00A00FEF7F6
:1021C800F5F9224621466FF00900FEF7EFF922469D
:1021D80021466FF00400FEF7E9F9224621466FF028
:1021E8000300FEF7E3F9224621466FF00100FEF7EF
:1021F800DDF9224621464FF0FF30FEF7D7F902B04D
:1022080010BD00BF0038024002680E4B9A4200D051
:10221800704700B583B00021019103F50D331A6CA6
:1022280042F002021A641B6C03F002030193019B43
:102238000A461D20FEF7BAF91D20FEF7EBF903B098
:102248005DF804FB0004004002680A4B9A4200D083
:10225800704700B587B04023019302230293002200
:1022680003920492059301A90348FEF70BFA07B0FD
:102278005DF804FB00040040000802400268174BA8
:102288009A4200D07047F0B587B000230093144BF2
:102298001A6C42F480221A641B6C03F480230093A6
:1022A800009B4FF4006301930227029701260396CF
:1022B800032504950724059401A90A48FEF7E2F9C5
:1022C8004FF480730193029703960495059401A92E
:1022D8000548FEF7D7F907B0F0BD00BF0048004039
:1022E8000038024000040240000C024008B5FEF726
:1022F80025F9FEF7C2F908BD08B50120FEF7B8FABE
:1023080008BD000008B50248FEF720FF08BD00BF61
:10231800E40000200F49D1F8883043F47003C1F875
:1023280088300D4B1A6842F001021A60002098604C
:102338001A6822F0847222F480321A60074A5A60BE
:102348001A6822F480221A60D8604FF000638B600C
:10235800704700BF00ED00E0003802401030002454
:10236800DFF834D0002103E00C4B5B5843500431B4
:102378000B480C4B42189A42F6D30B4A02E0002352
:1023880042F8043B094B9A42F9D3FFF7C3FF00F028
:1023980011F8FFF777FE7047000002205424000868
:1023A8000000002010000020100000202401002060
:1023B800FEE7000070B50D4E0D4CA41BA4100025BF
:1023C800A54209D10B4E0C4C00F018F8A41BA41020
:1023D8000025A54205D170BD56F82530984701352E
:1023E800EEE756F8253098470135F2E74C24000807
:1023F8004C2400084C24000850240008F8B500BFFD
:10240800F8BC08BC9E467047F8B500BFF8BC08BCCD
:042418009E46704725
:10241C000000000000000000010203040607080988
:10242C0000000000010203042E2E2F5372632F6D47
:08243C0061696E2E63000000CF
:08244400B4DDFF7F0100000080
:04244C00AD010008D6
:0424500089010008F6
:102454000100000010000000020000000024F4004D
:040000050800236963
:00000001FF
